S01C000045585445524E414C20494E5445525255505420322E7372656366
S11300000C942A000C9434000C9434000C943400A6
S11300100C9434000C9434000C9434000C9434008C
S11300200C9434000C9434000C9434000C9434007C
S11300300C9434000C9434000C9434000C9434006C
S11300400C9434000C9434000C9436000C9434005A
S11300500C94340011241FBECFE5D4E0DEBFCDBF25
S11300600E944E000C945A000C9400001F920F92B0
S11300700FB60F9211248F939F9395B381E0892734
S113008085BB83ED90E30197F1F700C000009F91D9
S11300908F910F900FBE0F901F901895A09A85B363
S11300A085BBBA98C29A80E28BBF84B7806484BF50
S10B00B07894FFCFF894FFCF10
S9030000FC
